{
  "_format": "hh-sol-artifact-1",
  "contractName": "GroupManagement",
  "sourceName": "contracts/GroupManagement.sol",
  "abi": [
    {
      "inputs": [
        {
          "internalType": "string",
          "name": "_groupName",
          "type": "string"
        },
        {
          "internalType": "string",
          "name": "_groupSymbol",
          "type": "string"
        },
        {
          "internalType": "address",
          "name": "_depositToken",
          "type": "address"
        },
        {
          "internalType": "uint256",
          "name": "_depositEndDate",
          "type": "uint256"
        },
        {
          "internalType": "uint256",
          "name": "_depositLimit",
          "type": "uint256"
        },
        {
          "internalType": "uint256",
          "name": "_maxMembers",
          "type": "uint256"
        },
        {
          "internalType": "address",
          "name": "_treasureAddress",
          "type": "address"
        },
        {
          "internalType": "address",
          "name": "_contractOwner",
          "type": "address"
        }
      ],
      "stateMutability": "nonpayable",
      "type": "constructor"
    },
    {
      "anonymous": false,
      "inputs": [
        {
          "indexed": true,
          "internalType": "address",
          "name": "owner",
          "type": "address"
        },
        {
          "indexed": true,
          "internalType": "address",
          "name": "spender",
          "type": "address"
        },
        {
          "indexed": false,
          "internalType": "uint256",
          "name": "value",
          "type": "uint256"
        }
      ],
      "name": "Approval",
      "type": "event"
    },
    {
      "anonymous": false,
      "inputs": [
        {
          "indexed": false,
          "internalType": "address",
          "name": "user",
          "type": "address"
        },
        {
          "indexed": false,
          "internalType": "uint256",
          "name": "quantity",
          "type": "uint256"
        }
      ],
      "name": "NewBurn",
      "type": "event"
    },
    {
      "anonymous": false,
      "inputs": [
        {
          "indexed": false,
          "internalType": "address",
          "name": "user",
          "type": "address"
        },
        {
          "indexed": false,
          "internalType": "uint256",
          "name": "quantity",
          "type": "uint256"
        },
        {
          "indexed": false,
          "internalType": "address",
          "name": "token",
          "type": "address"
        }
      ],
      "name": "NewDeposit",
      "type": "event"
    },
    {
      "anonymous": false,
      "inputs": [
        {
          "indexed": false,
          "internalType": "address",
          "name": "user",
          "type": "address"
        },
        {
          "indexed": false,
          "internalType": "uint256",
          "name": "quantity",
          "type": "uint256"
        }
      ],
      "name": "NewMint",
      "type": "event"
    },
    {
      "anonymous": false,
      "inputs": [
        {
          "indexed": true,
          "internalType": "address",
          "name": "previousOwner",
          "type": "address"
        },
        {
          "indexed": true,
          "internalType": "address",
          "name": "newOwner",
          "type": "address"
        }
      ],
      "name": "OwnershipTransferred",
      "type": "event"
    },
    {
      "anonymous": false,
      "inputs": [
        {
          "indexed": true,
          "internalType": "address",
          "name": "from",
          "type": "address"
        },
        {
          "indexed": true,
          "internalType": "address",
          "name": "to",
          "type": "address"
        },
        {
          "indexed": false,
          "internalType": "uint256",
          "name": "value",
          "type": "uint256"
        }
      ],
      "name": "Transfer",
      "type": "event"
    },
    {
      "inputs": [
        {
          "internalType": "uint256",
          "name": "_depositAmount",
          "type": "uint256"
        }
      ],
      "name": "addDeposit",
      "outputs": [],
      "stateMutability": "payable",
      "type": "function"
    },
    {
      "inputs": [
        {
          "internalType": "address",
          "name": "owner",
          "type": "address"
        },
        {
          "internalType": "address",
          "name": "spender",
          "type": "address"
        }
      ],
      "name": "allowance",
      "outputs": [
        {
          "internalType": "uint256",
          "name": "",
          "type": "uint256"
        }
      ],
      "stateMutability": "view",
      "type": "function"
    },
    {
      "inputs": [
        {
          "internalType": "address",
          "name": "spender",
          "type": "address"
        },
        {
          "internalType": "uint256",
          "name": "amount",
          "type": "uint256"
        }
      ],
      "name": "approve",
      "outputs": [
        {
          "internalType": "bool",
          "name": "",
          "type": "bool"
        }
      ],
      "stateMutability": "nonpayable",
      "type": "function"
    },
    {
      "inputs": [
        {
          "internalType": "address",
          "name": "account",
          "type": "address"
        }
      ],
      "name": "balanceOf",
      "outputs": [
        {
          "internalType": "uint256",
          "name": "",
          "type": "uint256"
        }
      ],
      "stateMutability": "view",
      "type": "function"
    },
    {
      "inputs": [
        {
          "internalType": "address",
          "name": "_toWallet",
          "type": "address"
        },
        {
          "internalType": "uint256",
          "name": "_quantity",
          "type": "uint256"
        }
      ],
      "name": "burnTokenTo",
      "outputs": [],
      "stateMutability": "nonpayable",
      "type": "function"
    },
    {
      "inputs": [],
      "name": "decimals",
      "outputs": [
        {
          "internalType": "uint8",
          "name": "",
          "type": "uint8"
        }
      ],
      "stateMutability": "view",
      "type": "function"
    },
    {
      "inputs": [
        {
          "internalType": "address",
          "name": "spender",
          "type": "address"
        },
        {
          "internalType": "uint256",
          "name": "subtractedValue",
          "type": "uint256"
        }
      ],
      "name": "decreaseAllowance",
      "outputs": [
        {
          "internalType": "bool",
          "name": "",
          "type": "bool"
        }
      ],
      "stateMutability": "nonpayable",
      "type": "function"
    },
    {
      "inputs": [],
      "name": "depositEndDate",
      "outputs": [
        {
          "internalType": "uint256",
          "name": "",
          "type": "uint256"
        }
      ],
      "stateMutability": "view",
      "type": "function"
    },
    {
      "inputs": [],
      "name": "depositLimit",
      "outputs": [
        {
          "internalType": "uint256",
          "name": "",
          "type": "uint256"
        }
      ],
      "stateMutability": "view",
      "type": "function"
    },
    {
      "inputs": [],
      "name": "depositToken",
      "outputs": [
        {
          "internalType": "address",
          "name": "",
          "type": "address"
        }
      ],
      "stateMutability": "view",
      "type": "function"
    },
    {
      "inputs": [
        {
          "internalType": "address",
          "name": "spender",
          "type": "address"
        },
        {
          "internalType": "uint256",
          "name": "addedValue",
          "type": "uint256"
        }
      ],
      "name": "increaseAllowance",
      "outputs": [
        {
          "internalType": "bool",
          "name": "",
          "type": "bool"
        }
      ],
      "stateMutability": "nonpayable",
      "type": "function"
    },
    {
      "inputs": [],
      "name": "maxMember",
      "outputs": [
        {
          "internalType": "uint256",
          "name": "",
          "type": "uint256"
        }
      ],
      "stateMutability": "view",
      "type": "function"
    },
    {
      "inputs": [],
      "name": "maxMembers",
      "outputs": [
        {
          "internalType": "uint256",
          "name": "",
          "type": "uint256"
        }
      ],
      "stateMutability": "view",
      "type": "function"
    },
    {
      "inputs": [
        {
          "internalType": "address",
          "name": "_toWallet",
          "type": "address"
        },
        {
          "internalType": "uint256",
          "name": "_quantity",
          "type": "uint256"
        }
      ],
      "name": "mintTokenTo",
      "outputs": [],
      "stateMutability": "nonpayable",
      "type": "function"
    },
    {
      "inputs": [],
      "name": "name",
      "outputs": [
        {
          "internalType": "string",
          "name": "",
          "type": "string"
        }
      ],
      "stateMutability": "view",
      "type": "function"
    },
    {
      "inputs": [],
      "name": "owner",
      "outputs": [
        {
          "internalType": "address",
          "name": "",
          "type": "address"
        }
      ],
      "stateMutability": "view",
      "type": "function"
    },
    {
      "inputs": [],
      "name": "renounceOwnership",
      "outputs": [],
      "stateMutability": "nonpayable",
      "type": "function"
    },
    {
      "inputs": [
        {
          "internalType": "uint256",
          "name": "_depositEndDate",
          "type": "uint256"
        }
      ],
      "name": "setDepositEnDate",
      "outputs": [],
      "stateMutability": "nonpayable",
      "type": "function"
    },
    {
      "inputs": [
        {
          "internalType": "uint256",
          "name": "_depositLimit",
          "type": "uint256"
        }
      ],
      "name": "setDepositLimit",
      "outputs": [],
      "stateMutability": "nonpayable",
      "type": "function"
    },
    {
      "inputs": [],
      "name": "symbol",
      "outputs": [
        {
          "internalType": "string",
          "name": "",
          "type": "string"
        }
      ],
      "stateMutability": "view",
      "type": "function"
    },
    {
      "inputs": [],
      "name": "totalSupply",
      "outputs": [
        {
          "internalType": "uint256",
          "name": "",
          "type": "uint256"
        }
      ],
      "stateMutability": "view",
      "type": "function"
    },
    {
      "inputs": [
        {
          "internalType": "address",
          "name": "to",
          "type": "address"
        },
        {
          "internalType": "uint256",
          "name": "amount",
          "type": "uint256"
        }
      ],
      "name": "transfer",
      "outputs": [
        {
          "internalType": "bool",
          "name": "",
          "type": "bool"
        }
      ],
      "stateMutability": "nonpayable",
      "type": "function"
    },
    {
      "inputs": [
        {
          "internalType": "address",
          "name": "from",
          "type": "address"
        },
        {
          "internalType": "address",
          "name": "to",
          "type": "address"
        },
        {
          "internalType": "uint256",
          "name": "amount",
          "type": "uint256"
        }
      ],
      "name": "transferFrom",
      "outputs": [
        {
          "internalType": "bool",
          "name": "",
          "type": "bool"
        }
      ],
      "stateMutability": "nonpayable",
      "type": "function"
    },
    {
      "inputs": [
        {
          "internalType": "address",
          "name": "newOwner",
          "type": "address"
        }
      ],
      "name": "transferOwnership",
      "outputs": [],
      "stateMutability": "nonpayable",
      "type": "function"
    },
    {
      "inputs": [],
      "name": "treasureAddress",
      "outputs": [
        {
          "internalType": "address",
          "name": "",
          "type": "address"
        }
      ],
      "stateMutability": "view",
      "type": "function"
    }
  ],
  "bytecode": "0x60806040523480156200001157600080fd5b5060405162002f0338038062002f038339818101604052810190620000379190620004a1565b878781600390805190602001906200005192919062000351565b5080600490805190602001906200006a92919062000351565b5050506200008d620000816200014360201b60201c565b6200014b60201b60201c565b85600660006101000a81548173ffffffffffffffffffffffffffffffffffffffff021916908373ffffffffffffffffffffffffffffffffffffffff160217905550846007819055508360098190555082600a8190555081600b60006101000a81548173ffffffffffffffffffffffffffffffffffffffff021916908373ffffffffffffffffffffffffffffffffffffffff16021790555062000135816200021160201b60201c565b505050505050505062000893565b600033905090565b6000600560009054906101000a900473ffffffffffffffffffffffffffffffffffffffff16905081600560006101000a81548173ffffffffffffffffffffffffffffffffffffffff021916908373ffffffffffffffffffffffffffffffffffffffff1602179055508173ffffffffffffffffffffffffffffffffffffffff168173ffffffffffffffffffffffffffffffffffffffff167f8be0079c531659141344cd1fd0a4f28419497f9722a3daafe3b4186f6b6457e060405160405180910390a35050565b620002216200014360201b60201c565b73ffffffffffffffffffffffffffffffffffffffff16620002476200032760201b60201c565b73ffffffffffffffffffffffffffffffffffffffff1614620002a0576040517f08c379a0000000000000000000000000000000000000000000000000000000008152600401620002979062000606565b60405180910390fd5b600073ffffffffffffffffffffffffffffffffffffffff168173ffffffffffffffffffffffffffffffffffffffff16141562000313576040517f08c379a00000000000000000000000000000000000000000000000000000000081526004016200030a90620005e4565b60405180910390fd5b62000324816200014b60201b60201c565b50565b6000600560009054906101000a900473ffffffffffffffffffffffffffffffffffffffff16905090565b8280546200035f906200070c565b90600052602060002090601f016020900481019282620003835760008555620003cf565b82601f106200039e57805160ff1916838001178555620003cf565b82800160010185558215620003cf579182015b82811115620003ce578251825591602001919060010190620003b1565b5b509050620003de9190620003e2565b5090565b5b80821115620003fd576000816000905550600101620003e3565b5090565b600062000418620004128462000651565b62000628565b9050828152602081018484840111156200043157600080fd5b6200043e848285620006d6565b509392505050565b60008151905062000457816200085f565b92915050565b600082601f8301126200046f57600080fd5b81516200048184826020860162000401565b91505092915050565b6000815190506200049b8162000879565b92915050565b600080600080600080600080610100898b031215620004bf57600080fd5b600089015167ffffffffffffffff811115620004da57600080fd5b620004e88b828c016200045d565b985050602089015167ffffffffffffffff8111156200050657600080fd5b620005148b828c016200045d565b9750506040620005278b828c0162000446565b96505060606200053a8b828c016200048a565b95505060806200054d8b828c016200048a565b94505060a0620005608b828c016200048a565b93505060c0620005738b828c0162000446565b92505060e0620005868b828c0162000446565b9150509295985092959890939650565b6000620005a560268362000687565b9150620005b282620007e7565b604082019050919050565b6000620005cc60208362000687565b9150620005d98262000836565b602082019050919050565b60006020820190508181036000830152620005ff8162000596565b9050919050565b600060208201905081810360008301526200062181620005bd565b9050919050565b60006200063462000647565b905062000642828262000742565b919050565b6000604051905090565b600067ffffffffffffffff8211156200066f576200066e620007a7565b5b6200067a82620007d6565b9050602081019050919050565b600082825260208201905092915050565b6000620006a582620006ac565b9050919050565b600073ffffffffffffffffffffffffffffffffffffffff82169050919050565b6000819050919050565b60005b83811015620006f6578082015181840152602081019050620006d9565b8381111562000706576000848401525b50505050565b600060028204905060018216806200072557607f821691505b602082108114156200073c576200073b62000778565b5b50919050565b6200074d82620007d6565b810181811067ffffffffffffffff821117156200076f576200076e620007a7565b5b80604052505050565b7f4e487b7100000000000000000000000000000000000000000000000000000000600052602260045260246000fd5b7f4e487b7100000000000000000000000000000000000000000000000000000000600052604160045260246000fd5b6000601f19601f8301169050919050565b7f4f776e61626c653a206e6577206f776e657220697320746865207a65726f206160008201527f6464726573730000000000000000000000000000000000000000000000000000602082015250565b7f4f776e61626c653a2063616c6c6572206973206e6f7420746865206f776e6572600082015250565b6200086a8162000698565b81146200087657600080fd5b50565b6200088481620006cc565b81146200089057600080fd5b50565b61266080620008a36000396000f3fe6080604052600436106101665760003560e01c806395d89b41116100d1578063bf4386a01161008a578063d46f6b0311610064578063d46f6b0314610533578063dd62ed3e1461055e578063ecf708581461059b578063f2fde38b146105c657610166565b8063bf4386a0146104b2578063c89039c5146104dd578063cac246ef1461050857610166565b806395d89b411461039f578063a457c2d7146103ca578063a6f1fd5114610407578063a9059cbb14610423578063b0a089fa14610460578063bdc8144b1461048957610166565b806339509351116101235780633950935114610291578063669a1f69146102ce57806370a08231146102f7578063715018a614610334578063754d4b651461034b5780638da5cb5b1461037457610166565b806303e3c9ac1461016b57806306fdde0314610196578063095ea7b3146101c157806318160ddd146101fe57806323b872dd14610229578063313ce56714610266575b600080fd5b34801561017757600080fd5b506101806105ef565b60405161018d919061204c565b60405180910390f35b3480156101a257600080fd5b506101ab6105f5565b6040516101b89190611e6a565b60405180910390f35b3480156101cd57600080fd5b506101e860048036038101906101e39190611ab0565b610687565b6040516101f59190611e4f565b60405180910390f35b34801561020a57600080fd5b506102136106aa565b604051610220919061204c565b60405180910390f35b34801561023557600080fd5b50610250600480360381019061024b9190611a61565b6106b4565b60405161025d9190611e4f565b60405180910390f35b34801561027257600080fd5b5061027b6106e3565b6040516102889190612067565b60405180910390f35b34801561029d57600080fd5b506102b860048036038101906102b39190611ab0565b6106ec565b6040516102c59190611e4f565b60405180910390f35b3480156102da57600080fd5b506102f560048036038101906102f09190611ab0565b610723565b005b34801561030357600080fd5b5061031e600480360381019061031991906119fc565b6107e6565b60405161032b919061204c565b60405180910390f35b34801561034057600080fd5b5061034961082e565b005b34801561035757600080fd5b50610372600480360381019061036d9190611b15565b6108b6565b005b34801561038057600080fd5b5061038961093c565b6040516103969190611d9d565b60405180910390f35b3480156103ab57600080fd5b506103b4610966565b6040516103c19190611e6a565b60405180910390f35b3480156103d657600080fd5b506103f160048036038101906103ec9190611ab0565b6109f8565b6040516103fe9190611e4f565b60405180910390f35b610421600480360381019061041c9190611b15565b610a6f565b005b34801561042f57600080fd5b5061044a60048036038101906104459190611ab0565b610d8d565b6040516104579190611e4f565b60405180910390f35b34801561046c57600080fd5b5061048760048036038101906104829190611ab0565b610db0565b005b34801561049557600080fd5b506104b060048036038101906104ab9190611b15565b610e73565b005b3480156104be57600080fd5b506104c7610ef9565b6040516104d4919061204c565b60405180910390f35b3480156104e957600080fd5b506104f2610eff565b6040516104ff9190611d9d565b60405180910390f35b34801561051457600080fd5b5061051d610f25565b60405161052a919061204c565b60405180910390f35b34801561053f57600080fd5b50610548610f2b565b6040516105559190611d9d565b60405180910390f35b34801561056a57600080fd5b5061058560048036038101906105809190611a25565b610f51565b604051610592919061204c565b60405180910390f35b3480156105a757600080fd5b506105b0610fd8565b6040516105bd919061204c565b60405180910390f35b3480156105d257600080fd5b506105ed60048036038101906105e891906119fc565b610fde565b005b60085481565b606060038054610604906121b0565b80601f0160208091040260200160405190810160405280929190818152602001828054610630906121b0565b801561067d5780601f106106525761010080835404028352916020019161067d565b820191906000526020600020905b81548152906001019060200180831161066057829003601f168201915b5050505050905090565b6000806106926110d6565b905061069f8185856110de565b600191505092915050565b6000600254905090565b6000806106bf6110d6565b90506106cc8582856112a9565b6106d7858585611335565b60019150509392505050565b60006012905090565b6000806106f76110d6565b90506107188185856107098589610f51565b610713919061209e565b6110de565b600191505092915050565b61072b6110d6565b73ffffffffffffffffffffffffffffffffffffffff1661074961093c565b73ffffffffffffffffffffffffffffffffffffffff161461079f576040517f08c379a000000000000000000000000000000000000000000000000000000000815260040161079690611f6c565b60405180910390fd5b6107a982826115b6565b7f52277f0b4a9b555c5aa96900a13546f972bda413737ec164aac947c87eec602482826040516107da929190611def565b60405180910390a15050565b60008060008373ffffffffffffffffffffffffffffffffffffffff1673ffffffffffffffffffffffffffffffffffffffff168152602001908152602001600020549050919050565b6108366110d6565b73ffffffffffffffffffffffffffffffffffffffff1661085461093c565b73ffffffffffffffffffffffffffffffffffffffff16146108aa576040517f08c379a00000000000000000000000000000000000000000000000000000000081526004016108a190611f6c565b60405180910390fd5b6108b46000611716565b565b6108be6110d6565b73ffffffffffffffffffffffffffffffffffffffff166108dc61093c565b73ffffffffffffffffffffffffffffffffffffffff1614610932576040517f08c379a000000000000000000000000000000000000000000000000000000000815260040161092990611f6c565b60405180910390fd5b8060078190555050565b6000600560009054906101000a900473ffffffffffffffffffffffffffffffffffffffff16905090565b606060048054610975906121b0565b80601f01602080910402602001604051908101604052809291908181526020018280546109a1906121b0565b80156109ee5780601f106109c3576101008083540402835291602001916109ee565b820191906000526020600020905b8154815290600101906020018083116109d157829003601f168201915b5050505050905090565b600080610a036110d6565b90506000610a118286610f51565b905083811015610a56576040517f08c379a0000000000000000000000000000000000000000000000000000000008152600401610a4d9061200c565b60405180910390fd5b610a6382868684036110de565b60019250505092915050565b4260075411610ab3576040517f08c379a0000000000000000000000000000000000000000000000000000000008152600401610aaa90611f4c565b60405180910390fd5b600073ffffffffffffffffffffffffffffffffffffffff16600660009054906101000a900473ffffffffffffffffffffffffffffffffffffffff1673ffffffffffffffffffffffffffffffffffffffff161415610c0357346009541015610b4f576040517f08c379a0000000000000000000000000000000000000000000000000000000008152600401610b4690611fec565b60405180910390fd5b600b60009054906101000a900473ffffffffffffffffffffffffffffffffffffffff1673ffffffffffffffffffffffffffffffffffffffff166108fc349081150290604051600060405180830381858888f19350505050158015610bb7573d6000803e3d6000fd5b50610bc233346115b6565b7f61f90d3232f0ea66c5f9fa6179098796f4fe1ab2c5b6c0f1533dd86b88993ce033346000604051610bf693929190611e18565b60405180910390a1610d8a565b806009541015610c48576040517f08c379a0000000000000000000000000000000000000000000000000000000008152600401610c3f90611fec565b60405180910390fd5b6000600660009054906101000a900473ffffffffffffffffffffffffffffffffffffffff1690508073ffffffffffffffffffffffffffffffffffffffff166323b872dd33600b60009054906101000a900473ffffffffffffffffffffffffffffffffffffffff16856040518463ffffffff1660e01b8152600401610cce93929190611db8565b602060405180830381600087803b158015610ce857600080fd5b505af1158015610cfc573d6000803e3d6000fd5b505050506040513d601f19601f82011682018060405250810190610d209190611aec565b50610d2b33836115b6565b7f61f90d3232f0ea66c5f9fa6179098796f4fe1ab2c5b6c0f1533dd86b88993ce03383600660009054906101000a900473ffffffffffffffffffffffffffffffffffffffff16604051610d8093929190611e18565b60405180910390a1505b50565b600080610d986110d6565b9050610da5818585611335565b600191505092915050565b610db86110d6565b73ffffffffffffffffffffffffffffffffffffffff16610dd661093c565b73ffffffffffffffffffffffffffffffffffffffff1614610e2c576040517f08c379a0000000000000000000000000000000000000000000000000000000008152600401610e2390611f6c565b60405180910390fd5b610e3682826117dc565b7f4833740d2683e5971d1a7897f84a73898935253e67e968277676a6ab712b0be78282604051610e67929190611def565b60405180910390a15050565b610e7b6110d6565b73ffffffffffffffffffffffffffffffffffffffff16610e9961093c565b73ffffffffffffffffffffffffffffffffffffffff1614610eef576040517f08c379a0000000000000000000000000000000000000000000000000000000008152600401610ee690611f6c565b60405180910390fd5b8060098190555050565b600a5481565b600660009054906101000a900473ffffffffffffffffffffffffffffffffffffffff1681565b60075481565b600b60009054906101000a900473ffffffffffffffffffffffffffffffffffffffff1681565b6000600160008473ffffffffffffffffffffffffffffffffffffffff1673ffffffffffffffffffffffffffffffffffffffff16815260200190815260200160002060008373ffffffffffffffffffffffffffffffffffffffff1673ffffffffffffffffffffffffffffffffffffffff16815260200190815260200160002054905092915050565b60095481565b610fe66110d6565b73ffffffffffffffffffffffffffffffffffffffff1661100461093c565b73ffffffffffffffffffffffffffffffffffffffff161461105a576040517f08c379a000000000000000000000000000000000000000000000000000000000815260040161105190611f6c565b60405180910390fd5b600073ffffffffffffffffffffffffffffffffffffffff168173ffffffffffffffffffffffffffffffffffffffff1614156110ca576040517f08c379a00000000000000000000000000000000000000000000000000000000081526004016110c190611ecc565b60405180910390fd5b6110d381611716565b50565b600033905090565b600073ffffffffffffffffffffffffffffffffffffffff168373ffffffffffffffffffffffffffffffffffffffff16141561114e576040517f08c379a000000000000000000000000000000000000000000000000000000000815260040161114590611fcc565b60405180910390fd5b600073ffffffffffffffffffffffffffffffffffffffff168273ffffffffffffffffffffffffffffffffffffffff1614156111be576040517f08c379a00000000000000000000000000000000000000000000000000000000081526004016111b590611eec565b60405180910390fd5b80600160008573ffffffffffffffffffffffffffffffffffffffff1673ffffffffffffffffffffffffffffffffffffffff16815260200190815260200160002060008473ffffffffffffffffffffffffffffffffffffffff1673ffffffffffffffffffffffffffffffffffffffff168152602001908152602001600020819055508173ffffffffffffffffffffffffffffffffffffffff168373ffffffffffffffffffffffffffffffffffffffff167f8c5be1e5ebec7d5bd14f71427d1e84f3dd0314c0f7b2291e5b200ac8c7c3b9258360405161129c919061204c565b60405180910390a3505050565b60006112b58484610f51565b90507fffffffffffffffffffffffffffffffffffffffffffffffffffffffffffffffff811461132f5781811015611321576040517f08c379a000000000000000000000000000000000000000000000000000000000815260040161131890611f0c565b60405180910390fd5b61132e84848484036110de565b5b50505050565b600073ffffffffffffffffffffffffffffffffffffffff168373ffffffffffffffffffffffffffffffffffffffff1614156113a5576040517f08c379a000000000000000000000000000000000000000000000000000000000815260040161139c90611fac565b60405180910390fd5b600073ffffffffffffffffffffffffffffffffffffffff168273ffffffffffffffffffffffffffffffffffffffff161415611415576040517f08c379a000000000000000000000000000000000000000000000000000000000815260040161140c90611e8c565b60405180910390fd5b6114208383836119b3565b60008060008573ffffffffffffffffffffffffffffffffffffffff1673ffffffffffffffffffffffffffffffffffffffff168152602001908152602001600020549050818110156114a6576040517f08c379a000000000000000000000000000000000000000000000000000000000815260040161149d90611f2c565b60405180910390fd5b8181036000808673ffffffffffffffffffffffffffffffffffffffff1673ffffffffffffffffffffffffffffffffffffffff16815260200190815260200160002081905550816000808573ffffffffffffffffffffffffffffffffffffffff1673ffffffffffffffffffffffffffffffffffffffff1681526020019081526020016000206000828254611539919061209e565b925050819055508273ffffffffffffffffffffffffffffffffffffffff168473ffffffffffffffffffffffffffffffffffffffff167fddf252ad1be2c89b69c2b068fc378daa952ba7f163c4a11628f55a4df523b3ef8460405161159d919061204c565b60405180910390a36115b08484846119b8565b50505050565b600073ffffffffffffffffffffffffffffffffffffffff168273ffffffffffffffffffffffffffffffffffffffff161415611626576040517f08c379a000000000000000000000000000000000000000000000000000000000815260040161161d9061202c565b60405180910390fd5b611632600083836119b3565b8060026000828254611644919061209e565b92505081905550806000808473ffffffffffffffffffffffffffffffffffffffff1673ffffffffffffffffffffffffffffffffffffffff1681526020019081526020016000206000828254611699919061209e565b925050819055508173ffffffffffffffffffffffffffffffffffffffff16600073ffffffffffffffffffffffffffffffffffffffff167fddf252ad1be2c89b69c2b068fc378daa952ba7f163c4a11628f55a4df523b3ef836040516116fe919061204c565b60405180910390a3611712600083836119b8565b5050565b6000600560009054906101000a900473ffffffffffffffffffffffffffffffffffffffff16905081600560006101000a81548173ffffffffffffffffffffffffffffffffffffffff021916908373ffffffffffffffffffffffffffffffffffffffff1602179055508173ffffffffffffffffffffffffffffffffffffffff168173ffffffffffffffffffffffffffffffffffffffff167f8be0079c531659141344cd1fd0a4f28419497f9722a3daafe3b4186f6b6457e060405160405180910390a35050565b600073ffffffffffffffffffffffffffffffffffffffff168273ffffffffffffffffffffffffffffffffffffffff16141561184c576040517f08c379a000000000000000000000000000000000000000000000000000000000815260040161184390611f8c565b60405180910390fd5b611858826000836119b3565b60008060008473ffffffffffffffffffffffffffffffffffffffff1673ffffffffffffffffffffffffffffffffffffffff168152602001908152602001600020549050818110156118de576040517f08c379a00000000000000000000000000000000000000000000000000000000081526004016118d590611eac565b60405180910390fd5b8181036000808573ffffffffffffffffffffffffffffffffffffffff1673ffffffffffffffffffffffffffffffffffffffff16815260200190815260200160002081905550816002600082825461193591906120f4565b92505081905550600073ffffffffffffffffffffffffffffffffffffffff168373ffffffffffffffffffffffffffffffffffffffff167fddf252ad1be2c89b69c2b068fc378daa952ba7f163c4a11628f55a4df523b3ef8460405161199a919061204c565b60405180910390a36119ae836000846119b8565b505050565b505050565b505050565b6000813590506119cc816125e5565b92915050565b6000815190506119e1816125fc565b92915050565b6000813590506119f681612613565b92915050565b600060208284031215611a0e57600080fd5b6000611a1c848285016119bd565b91505092915050565b60008060408385031215611a3857600080fd5b6000611a46858286016119bd565b9250506020611a57858286016119bd565b9150509250929050565b600080600060608486031215611a7657600080fd5b6000611a84868287016119bd565b9350506020611a95868287016119bd565b9250506040611aa6868287016119e7565b9150509250925092565b60008060408385031215611ac357600080fd5b6000611ad1858286016119bd565b9250506020611ae2858286016119e7565b9150509250929050565b600060208284031215611afe57600080fd5b6000611b0c848285016119d2565b91505092915050565b600060208284031215611b2757600080fd5b6000611b35848285016119e7565b91505092915050565b611b4781612128565b82525050565b611b568161213a565b82525050565b6000611b6782612082565b611b71818561208d565b9350611b8181856020860161217d565b611b8a81612240565b840191505092915050565b6000611ba260238361208d565b9150611bad82612251565b604082019050919050565b6000611bc560228361208d565b9150611bd0826122a0565b604082019050919050565b6000611be860268361208d565b9150611bf3826122ef565b604082019050919050565b6000611c0b60228361208d565b9150611c168261233e565b604082019050919050565b6000611c2e601d8361208d565b9150611c398261238d565b602082019050919050565b6000611c5160268361208d565b9150611c5c826123b6565b604082019050919050565b6000611c74600d8361208d565b9150611c7f82612405565b602082019050919050565b6000611c9760208361208d565b9150611ca28261242e565b602082019050919050565b6000611cba60218361208d565b9150611cc582612457565b604082019050919050565b6000611cdd60258361208d565b9150611ce8826124a6565b604082019050919050565b6000611d0060248361208d565b9150611d0b826124f5565b604082019050919050565b6000611d2360148361208d565b9150611d2e82612544565b602082019050919050565b6000611d4660258361208d565b9150611d518261256d565b604082019050919050565b6000611d69601f8361208d565b9150611d74826125bc565b602082019050919050565b611d8881612166565b82525050565b611d9781612170565b82525050565b6000602082019050611db26000830184611b3e565b92915050565b6000606082019050611dcd6000830186611b3e565b611dda6020830185611b3e565b611de76040830184611d7f565b949350505050565b6000604082019050611e046000830185611b3e565b611e116020830184611d7f565b9392505050565b6000606082019050611e2d6000830186611b3e565b611e3a6020830185611d7f565b611e476040830184611b3e565b949350505050565b6000602082019050611e646000830184611b4d565b92915050565b60006020820190508181036000830152611e848184611b5c565b905092915050565b60006020820190508181036000830152611ea581611b95565b9050919050565b60006020820190508181036000830152611ec581611bb8565b9050919050565b60006020820190508181036000830152611ee581611bdb565b9050919050565b60006020820190508181036000830152611f0581611bfe565b9050919050565b60006020820190508181036000830152611f2581611c21565b9050919050565b60006020820190508181036000830152611f4581611c44565b9050919050565b60006020820190508181036000830152611f6581611c67565b9050919050565b60006020820190508181036000830152611f8581611c8a565b9050919050565b60006020820190508181036000830152611fa581611cad565b9050919050565b60006020820190508181036000830152611fc581611cd0565b9050919050565b60006020820190508181036000830152611fe581611cf3565b9050919050565b6000602082019050818103600083015261200581611d16565b9050919050565b6000602082019050818103600083015261202581611d39565b9050919050565b6000602082019050818103600083015261204581611d5c565b9050919050565b60006020820190506120616000830184611d7f565b92915050565b600060208201905061207c6000830184611d8e565b92915050565b600081519050919050565b600082825260208201905092915050565b60006120a982612166565b91506120b483612166565b9250827fffffffffffffffffffffffffffffffffffffffffffffffffffffffffffffffff038211156120e9576120e86121e2565b5b828201905092915050565b60006120ff82612166565b915061210a83612166565b92508282101561211d5761211c6121e2565b5b828203905092915050565b600061213382612146565b9050919050565b60008115159050919050565b600073ffffffffffffffffffffffffffffffffffffffff82169050919050565b6000819050919050565b600060ff82169050919050565b60005b8381101561219b578082015181840152602081019050612180565b838111156121aa576000848401525b50505050565b600060028204905060018216806121c857607f821691505b602082108114156121dc576121db612211565b5b50919050565b7f4e487b7100000000000000000000000000000000000000000000000000000000600052601160045260246000fd5b7f4e487b7100000000000000000000000000000000000000000000000000000000600052602260045260246000fd5b6000601f19601f8301169050919050565b7f45524332303a207472616e7366657220746f20746865207a65726f206164647260008201527f6573730000000000000000000000000000000000000000000000000000000000602082015250565b7f45524332303a206275726e20616d6f756e7420657863656564732062616c616e60008201527f6365000000000000000000000000000000000000000000000000000000000000602082015250565b7f4f776e61626c653a206e6577206f776e657220697320746865207a65726f206160008201527f6464726573730000000000000000000000000000000000000000000000000000602082015250565b7f45524332303a20617070726f766520746f20746865207a65726f20616464726560008201527f7373000000000000000000000000000000000000000000000000000000000000602082015250565b7f45524332303a20696e73756666696369656e7420616c6c6f77616e6365000000600082015250565b7f45524332303a207472616e7366657220616d6f756e742065786365656473206260008201527f616c616e63650000000000000000000000000000000000000000000000000000602082015250565b7f6465706f73697420656e64656400000000000000000000000000000000000000600082015250565b7f4f776e61626c653a2063616c6c6572206973206e6f7420746865206f776e6572600082015250565b7f45524332303a206275726e2066726f6d20746865207a65726f2061646472657360008201527f7300000000000000000000000000000000000000000000000000000000000000602082015250565b7f45524332303a207472616e736665722066726f6d20746865207a65726f20616460008201527f6472657373000000000000000000000000000000000000000000000000000000602082015250565b7f45524332303a20617070726f76652066726f6d20746865207a65726f2061646460008201527f7265737300000000000000000000000000000000000000000000000000000000602082015250565b7f6465706f73697420616d6f756e74206572726f72000000000000000000000000600082015250565b7f45524332303a2064656372656173656420616c6c6f77616e63652062656c6f7760008201527f207a65726f000000000000000000000000000000000000000000000000000000602082015250565b7f45524332303a206d696e7420746f20746865207a65726f206164647265737300600082015250565b6125ee81612128565b81146125f957600080fd5b50565b6126058161213a565b811461261057600080fd5b50565b61261c81612166565b811461262757600080fd5b5056fea264697066735822122006218c08c789bc7851691d358f30e684ed7e49718679c706e3ae67b40e40c7b764736f6c63430008040033",
  "linkReferences": {},
  "deployedLinkReferences": {}
}